:020000040800F2
:100000000000082475210008D5150008DD1500083A
:10001000E5150008ED150008F515000800000000C2
:10002000000000000000000000000000D1F4030800
:10003000FD1500080000000021F70308D5EC0308B7
:10004000C5210008C5210008C5210008C5210008F8
:10005000C5210008C5210008C5210008C5210008E8
:10006000C5210008C5210008C5210008C5210008D8
:10007000C5210008C5210008C5210008C5210008C8
:10008000C5210008C5210008C5210008C5210008B8
:10009000C5210008C5210008C5210008C5210008A8
:1000A000C5210008C5210008C5210008C521000898
:1000B000C5210008C5210008C5210008C521000888
:1000C000C5210008C5210008C5210008C521000878
:1000D000C5210008C5210008C5210008C521000868
:1000E0000B160008C521000800000000C52100080B
:1000F000C5210008C5210008C5210008C521000848
:10010000C52100084D210008C5210008C5210008AF
:10011000C5210008C52100081D160008C5210008DA
:10012000C5210008C5210008C5210008C521000817
:10013000C5210008C5210008C5210008C521000807
:10014000C5210008C52100080000000000000000D3
:10015000C5210008C5210008C5210008C5210008E7
:10016000C5210008C5210008C5210008C5210008D7
:10017000C5210008C5210008C521000800000000B5
:10018000C5210008C5210008C5210008C5210008B7
:10019000C5210008C5210008C5210008C5210008A7
:1001A000C5210008C5210008C5210008C521000897
:1001B000C5210008C5210008C5210008C521000887
:1001C000C5210008C5210008C5210008C521000877
:1001D000C5210008C5210008C5210008C521000867
:1001E000C5210008C5210008C5210008C521000857
:1001F000C5210008C5210008C5210008C521000847
:10020000C5210008C5210008C5210008C521000836
:10021000C5210008C5210008C5210008C521000826
:10022000C5210008C5210008C5210008C521000816
:10023000C5210008C5210008C5210008C521000806
:10024000C5210008C5210008C5210008C5210008F6
:10025000C5210008C5210008C5210008C5210008E6
:10026000C5210008C5210008C5210008C5210008D6
:10027000C5210008C5210008C5210008C5210008C6
:10028000C5210008C5210008C521000800000000A4
:08029000C5210008C52100088A
:1002A00010B5054C237833B9044B13B10448AFF3B0
:1002B00000800123237010BDE00200240000000034
:1002C000446E040808B5034B1BB103490348AFF360
:1002D000008008BD00000000E4020024446E040811
:1002E00010F8012B11F8013B012A28BF9A42F7D0E0
:1002F000D01A70470000000000000000000000005D
:1003000001F0FF01102A2BDB10F0070F08D010F8C6
:10031000013B013A8B422DD010F0070F42B3F6D1CA
:10032000F0B441EA012141EA014122F007047FF0E3
:1003300000070023F0E80256083C85EA010586EA3A
:10034000010685FA47F5A3FA87F586FA47F6A5FA76
:1003500087F68EB9EED1F0BC01F0FF0102F0070282
:1003600032B110F8013B013A83EA010313B1F8D12D
:100370000020704701387047002D06BF354603380E
:10038000073815F0010F07D1013015F4807F02BF47
:10039000013015F4C03F0130F0BC0138704700BF98
:1003A000034613F8012B002AFBD1181A01387047B5
:1003B00081F0004102E000BF83F0004330B54FEA16
:1003C00041044FEA430594EA050F08BF90EA020F83
:1003D0001FBF54EA000C55EA020C7FEA645C7FEA16
:1003E000655C00F0E2804FEA5454D4EB5555B8BF39
:1003F0006D420CDD2C4480EA020281EA030382EAAA
:10040000000083EA010180EA020281EA0303362D3B
:1004100088BF30BD11F0004F4FEA01314FF4801C0E
:100420004CEA113102D0404261EB410113F0004F20
:100430004FEA03334CEA133302D0524263EB4303D7
:1004400094EA050F00F0A780A4F10104D5F1200E75
:100450000DDB02FA0EFC22FA05F2801841F10001D0
:1004600003FA0EF2801843FA05F359410EE0A5F1A4
:1004700020050EF1200E012A03FA0EFC28BF4CF0D5
:10048000020C43FA05F3C01851EBE37101F000458B
:1004900007D54FF0000EDCF1000C7EEB00006EEB98
:1004A0000101B1F5801F1BD3B1F5001F0CD3490822
:1004B0005FEA30004FEA3C0C04F101044FEA445279
:1004C00012F5800F80F09A80BCF1004F08BF5FEA00
:1004D000500C50F1000041EB045141EA050130BDE0
:1004E0005FEA4C0C404141EB0101013C28BFB1F5F2
:1004F000801FE9D291F0000F04BF01460020B1FA3D
:1005000081F308BF2033A3F10B03B3F120020CDA0F
:100510000C3208DD02F1140CC2F10C0201FA0CF0ED
:1005200021FA02F10CE002F11402D8BFC2F1200C52
:1005300001FA02F120FA0CFCDCBF41EA0C01904008
:10054000E41AA2BF01EB0451294330BD6FEA040451
:100550001F3C1CDA0C340EDC04F11404C4F120023C
:1005600020FA04F001FA02F340EA030021FA04F34E
:1005700045EA030130BDC4F10C04C4F1200220FAA5
:1005800002F001FA04F340EA0300294630BD21FAE3
:1005900004F0294630BD94F0000F83F4801306BFA9
:1005A00081F480110134013D4EE77FEA645C18BF9D
:1005B0007FEA655C29D094EA050F08BF90EA020F34
:1005C00005D054EA000C04BF1946104630BD91EA2C
:1005D000030F1EBF0021002030BD5FEA545C05D12F
:1005E0004000494128BF41F0004130BD14F580046E
:1005F0003CBF01F5801130BD01F0004545F0FE41E2
:1006000041F470014FF0000030BD7FEA645C1ABF16
:10061000194610467FEA655C1CBF0B46024650EA4D
:10062000013406BF52EA033591EA030F41F4002179
:1006300030BD00BF90F0000F04BF0021704730B5FF
:100640004FF4806404F132044FF000054FF00001D4
:1006500050E700BF90F0000F04BF0021704730B595
:100660004FF4806404F1320410F0004548BF40426A
:100670004FF000013EE700BF42004FEAE2014FEABF
:1006800031014FEA02701FBF12F07F4393F07F4F9A
:1006900081F06051704732F07F4208BF704793F09D
:1006A0007F4F04BF41F40021704730B54FF46074B0
:1006B00001F0004521F000411CE700BF50EA0102B3
:1006C00008BF704730B54FF000050AE050EA01025C
:1006D00008BF704730B511F0004502D5404261EBCC
:1006E00041014FF4806404F132045FEA915C3FF40D
:1006F000D8AE4FF003025FEADC0C18BF03325FEAAA
:10070000DC0C18BF033202EBDC02C2F1200300FA5A
:1007100003FC20FA02F001FA03FE40EA0E0021FA7F
:1007200002F11444BDE600BF53B94AB9002908BF1D
:1007300000281CBF4FF0FF314FF0FF3000F0A2B98E
:10074000ADF1080C6DE904CE00F03EF8DDF804E0F0
:10075000DDE9022304B0704708B502460B4643ECBE
:10076000172BB5EEC07BF1EE10FA03D4BDE80840BC
:1007700000F00AB8B1EE477B51EC170B00F004F81B
:10078000404261EB410108BD9FED0B6B41EC170B43
:100790009FED0B5B27EE066BBCEEC66BB8EE464BCF
:1007A000A4EE457BFCEEC77B16EE101A17EE900AFE
:1007B000704700BFAFF30080000000000000F03D74
:1007C000000000000000F0412DE9F047089D0C46B4
:1007D000002B4ED194468C458646B2FA82F262D9FD
:1007E0004AB1C2F12003914020FA03F30CFA02FC53
:1007F000194300FA02FE4FEA1C471FFA8CF6B1FBC0
:10080000F7F44FEA1E4307FB141143EA014304FBCC
:1008100006F199420AD91CEB030304F1FF3080F082
:100820001281994240F20F81023C6344591A1FFA27
:100830008EF3B1FBF7F007FB101143EA014300FB15
:1008400006F69E420AD91CEB030300F1FF3180F04B
:10085000FC809E4240F2F980634402389B1B40EAD0
:10086000044000211DB1D3400022C5E90032BDE89B
:10087000F0878B4205D90DB1C5E90001002108467A
:10088000F5E7B3FA83F1002946D1A34202D390429F
:10089000C0F0F080861A64EB03030120002DE6D03F
:1008A000C5E90063E3E7002A40F09080A1EB0C0467
:1008B0004FEA1C481FFA8CF70121B4FBF8F64FEA07
:1008C0001E4308FB164443EA044307FB06F0984224
:1008D00008D91CEB030306F1FF3402D2984200F260
:1008E000CD8026461C1A1FFA8EF3B4FBF8F008FBE5
:1008F000104443EA044300FB07F79F4208D91CEB6E
:10090000030300F1FF3402D29F4200F2B080204680
:10091000DB1B40EA0640A5E7C1F120068B4022FA26
:1009200006F71F4320FA06FC04FA01F343EA0C031E
:10093000F44000FA01F8380C4FEA1349B4FBF0FE1A
:100940001FFA87FC00FB1E4449EA04440EFB0CF925
:10095000A14502FA01F20AD93C190EF1FF3A80F0E2
:100960008480A14540F28180AEF1020E3C44A4EBAC
:1009700009041FFA83F9B4FBF0F300FB134449EABE
:10098000044403FB0CFCA44507D93C1903F1FF30D8
:1009900067D2A44565D9023B3C4443EA0E40A0FB24
:1009A0000293A4EB0C049C42CE469C4651D34ED0FD
:1009B00055B1B8EB0E0364EB0C0404FA06F6CB4019
:1009C0001E43CC40C5E90064002150E7C2F120037A
:1009D00020FA03F10CFA02FC24FA03F394400C43CE
:1009E0004FEA1C4800FA02FE1FFA8CF7B3FBF8F03E
:1009F00008FB1031230C43EA014300FB07F1994245
:100A000008D91CEB030300F1FF362CD299422AD9F6
:100A1000023863445B1AA4B2B3FBF8F108FB11334C
:100A200044EA034401FB07F3A34208D91CEB040486
:100A300001F1FF3613D2A34211D902396444E41AFA
:100A400041EA004139E70446F0E6084606E7C845B2
:100A5000AED2B9EB020E63EB070C0138A8E73146C2
:100A6000EDE7034699E73046D4E7D6467FE763448F
:100A700002384DE70646234608460FE7023E634428
:100A800030E700BF704700BF80B400AF3F4BD3F8E2
:100A900088303E4A43F47003C2F888303B4B1B69F0
:100AA0003A4A43F010031361394B1B6803F00F03FC
:100AB000062B07D8364B1B6823F00F03344A43F04C
:100AC00007031360334B1B68324A43F00103136082
:100AD000304B00221A612F4B1A682E492E4B1340BF
:100AE0000B602B4B1B6803F00803002B07D0284B2F
:100AF0001B6823F00F03264A43F007031360254BBE
:100B000000229A61234B0022DA61224B00221A62F2
:100B1000204B224A9A621F4B214ADA621D4B214A1E
:100B20001A631C4B00225A631A4B1E4A9A63194BD4
:100B30000022DA63174B1B4A1A64164B00225A64D0
:100B4000144B1B68134A23F480231360114B0022BB
:100B50001A66154B5B6A144A43F480435362134B85
:100B60001A68134B1340B3F1005F02D2114B0122FC
:100B70001A60114B43F2D2021A60044B4FF000622C
:100B80009A6000BFBD465DF8047B704700ED00E051
:100B900000200052004402587FEDF6EA00020202F3
:100BA0000000FF0180020101C00000580010005C3D
:100BB0000000FFFF088100510040005280B582B064
:100BC00000AF7860391D4FF6FF730122034806F02D
:100BD000CFF97B6818460837BD4680BDFC0200246B
:100BE00080B586B000AF5B4B5B6903F40033002B2C
:100BF0001BD1BFF34F8F00BFBFF36F8F00BF554BAB
:100C00000022C3F85022BFF34F8F00BFBFF36F8F96
:100C100000BF504B5B694F4A43F400335361BFF34D
:100C20004F8F00BFBFF36F8F00E000BF494B5B6980
:100C300003F48033002B38D1464B0022C3F88420C4
:100C4000BFF34F8F00BF434BD3F880303B613B690C
:100C50005B0BC3F30E03FB603B69DB08C3F30903C3
:100C6000BB60FB685A0143F6E0731340BA68920711
:100C700038491343C1F86032BB685A1EBA60002B72
:100C8000EFD1FB685A1EFA60002BE5D1BFF34F8FFE
:100C900000BF304B5B692F4A43F480335361BFF38D
:100CA0004F8F00BFBFF36F8F00E000BF4FF6FF73A1
:100CB0007B6100BF284B1B6803F40043002B04D06A
:100CC0007B695A1E7A61002BF4DC7B69002B01DA08
:100CD00000F0E6FA01F018FB00F046F81E4BD3F8DE
:100CE000E0301D4A43F00073C2F8E0301A4BD3F8ED
:100CF000E03003F000737B607B68002001F0C2FFEE
:100D00000021002001F0D8FF4FF6FF737B6100BF88
:100D1000114B1B6803F40043002B04D17B695A1E5E
:100D20007A61002BF4DC7B69002B01DA00F0B8FA61
:100D300000F0EAF800F09CF83DF0E6FF074A0021D9
:100D400007483EF02BF80346064A13603EF000F8D1
:100D500000BFFDE700ED00E0004402588CFD0408F0
:100D6000C51700089003002480B59CB000AF07F1C0
:100D700024034C220021184643F07AFC3B1D20221C
:100D80000021184643F074FC042001F0A9FF002361
:100D90003B60354BDB6A344A23F00103D362324BAC
:100DA000DB6A03F001033B60304B9B6923F4404353
:100DB0002E4A43F4804393612C4B9B6903F44043D8
:100DC0003B603B6800BF294B9B6903F40053B3F5BC
:100DD000005FF8D102237B6201233B6340237B63E6
:100DE0000223BB640023FB6404233B6512237B6561
:100DF0000223BB650623FB6502233B660C237B664F
:100E00000023BB664FF4C053FB6607F1240318466A
:100E100001F0C0FF0346002B01D000F041FA3F2350
:100E20007B600323BB600023FB6008233B6100233E
:100E30007B610023BB614FF48063FB6100233B6255
:100E40003B1D0121184602F0FFFB0346002B01D099
:100E500000F026FA4FF480220021002002F0AAFDC3
:100E600000BF7037BD4680BD0004005800480258DE
:100E700080B500AF224B234A1A60214B4FF4E13278
:100E80005A601F4B00229A601D4B0022DA601C4BF7
:100E900000221A611A4B0C225A61194B00229A61E6
:100EA000174B0022DA61164B00221A62144B002203
:100EB0005A62134B00229A62114806F009F8034661
:100EC000002B01D000F0ECF900210D4807F067F984
:100ED0000346002B01D000F0E3F90021084807F099
:100EE0009CF90346002B01D000F0DAF9044807F022
:100EF0001DF90346002B01D000F0D2F900BF80BDE0
:100F0000FC0200240010014080B590B000AF07F152
:100F10002C0300221A605A609A60DA601A61BE4B94
:100F2000D3F8E030BC4A43F04003C2F8E030BA4B9B
:100F3000D3F8E03003F04003BB62BB6AB64BD3F892
:100F4000E030B54A43F00403C2F8E030B24BD3F8C6
:100F5000E03003F004037B627B6AAF4BD3F8E030F0
:100F6000AD4A43F00803C2F8E030AB4BD3F8E030B1
:100F700003F008033B623B6AA74BD3F8E030A64A74
:100F800043F00103C2F8E030A34BD3F8E03003F0A4
:100F90000103FB61FB69A04BD3F8E0309E4A43F4A8
:100FA0008073C2F8E0309C4BD3F8E03003F48073D8
:100FB000BB61BB69984BD3F8E030974A43F40073A8
:100FC000C2F8E030944BD3F8E03003F400737B6157
:100FD0007B69914BD3F8E0308F4A43F48063C2F8C9
:100FE000E0308D4BD3F8E03003F480633B613B6924
:100FF000894BD3F8E030884A43F08003C2F8E030F0
:10100000854BD3F8E03003F08003FB60FB68824B34
:10101000D3F8E030804A43F02003C2F8E0307E4B42
:10102000D3F8E03003F02003BB60BB687A4BD3F801
:10103000E030794A43F00203C2F8E030764BD3F84F
:10104000E03003F002037B607B680022402173489C
:1010500001F0CAFD00224FF47041714801F0C4FD57
:101060004FF48443FB6202233B6300237B63002332
:10107000BB630923FB6307F12C031946694801F0A0
:10108000E1FA4FF48073FB6200233B6300237B6330
:1010900007F12C031946624801F0D4FA4FF40053CB
:1010A000FB624FF488133B6300237B6307F12C033F
:1010B00019465D4801F0C6FA4FF48073FB620223C3
:1010C0003B6300237B630023BB630023FB6307F1C7
:1010D0002C031946554801F0B5FA4023FB62012361
:1010E0003B6300237B630023BB6307F12C0319469A
:1010F0004A4801F0A7FA4023FB6202233B63002326
:101100007B630023BB630A23FB6307F12C031946AF
:10111000444801F097FA4FF47043FB6201233B63AC
:1011200000237B630023BB6307F12C0319463C4873
:1011300001F088FA0423FB6200233B6300237B63F6
:1011400007F12C0319463A4801F07CFA0323FB62AD
:1011500002233B6300237B630023BB630523FB6304
:1011600007F12C031946324801F06CFAC023FB62E8
:1011700002233B6300237B630023BB630923FB63E0
:1011800007F12C0319462B4801F05CFA4FF4406339
:10119000FB6202233B6300237B630023BB630523C5
:1011A000FB6307F12C0319461F4801F04BFA4FF47B
:1011B0000073FB6202233B6300237B630023BB635A
:1011C0000A23FB6307F12C0319461A4801F03AFA87
:1011D0000C23FB6202233B6300237B630023BB637E
:1011E0000923FB6307F12C031946134801F02AFA7F
:1011F0000423FB6202233B6300237B630023BB6366
:101200000923FB6307F12C0319460C4801F01AFA75
:101210004FF4006314E000BF004402580008025875
:1012200000200258001802580024025800000258FA
:101230000028025800140258001C025800040258EA
:10124000FB6202233B6300237B630023BB63092310
:10125000FB6307F12C031946074801F0F3F900225C
:101260000521282001F0B8F9282001F0CFF900BFAE
:101270004037BD4680BD00BF000C025880B582B02B
:1012800000AF78607B681B68044A934201D101F08B
:1012900077F800BF0837BD4680BD00BF0010004092
:1012A00080B400AF72B600BF00BFFDE780B582B06A
:1012B00000AF0C4BD3F8F4300A4A43F00203C2F8F3
:1012C000F430084BD3F8F43003F002037B607B6802
:1012D00000220F216FF0010001F07EF900BF0837F6
:1012E000BD4680BD0044025880B5BEB000AF7860F6
:1012F00007F1E40300221A605A609A60DA601A610A
:1013000007F11803C8220021184643F0B1F97B68A1
:101310001B68414A93427BD14FF480324FF0000367
:10132000C7E9062304233B6209237B620223BB62D5
:101330000223FB6202233B63C0237B632023BB6346
:101340004FF44063FB634FF48033FB6607F11803EF
:10135000184602F0B1FD0346002B01D0FFF7A0FFB5
:101360002E4BD3F8D4302D4A43F48033C2F8D43016
:101370002A4BD3F8D43003F480337B617B69274B4D
:10138000D3F8E030254A43F00403C2F8E030234BA1
:10139000D3F8E03003F004033B613B691F4BD3F803
:1013A000E0301E4A43F00803C2F8E0301B4BD3F88C
:1013B000E03003F00803FB60FB684FF4F853C7F814
:1013C000E4300223C7F8E8300023C7F8EC300323E9
:1013D000C7F8F0300C23C7F8F43007F1E4031946DE
:1013E0000F4801F02FF90423C7F8E4300223C7F8AF
:1013F000E8300023C7F8EC300323C7F8F0300C23A3
:10140000C7F8F43007F1E4031946064801F01AF969
:1014100000BFF837BD4680BD00700052004402583E
:1014200000080258000C025880B5BCB000AF7860CC
:1014300007F1DC0300221A605A609A60DA601A61D0
:1014400007F11003C8220021184643F011F97B6808
:101450001B68274A934246D14FF001024FF0000328
:10146000C7E904230023C7F8903007F1100318469A
:1014700002F022FD0346002B01D0FFF711FF1D4BA8
:10148000D3F8F0301B4A43F01003C2F8F030194B88
:10149000D3F8F03003F01003FB60FB68154BD3F872
:1014A000E030144A43F00103C2F8E030114BD3F8A6
:1014B000E03003F00103BB60BB684FF4C063C7F8C2
:1014C000DC300223C7F8E0300023C7F8E430002303
:1014D000C7F8E8300723C7F8EC3007F1DC031946FA
:1014E000054801F0AFF800BFF037BD4680BD00BF32
:1014F00000100140004402580000025880B590B02E
:1015000000AF78607B680F2B27D8002279683620DF
:1015100001F062F8362001F079F8294A7B681360FF
:10152000284BD3F8E830274A43F01003C2F8E830DC
:10153000244BD3F8E83003F01003FB60FB6807F19D
:10154000100207F114031146184602F073FCBB6A3F
:10155000BB63BB6B002B06D101E001232BE002F043
:101560003DFCF86304E002F039FC03465B00FB63DA
:10157000FB6B154AA2FB03239B0C013B7B63134BC4
:10158000134A1A60114B40F2E732DA600F4A7B6B64
:1015900053600E4B00221A610C4B00229A600B48DC
:1015A00005F0C8F90346002B04D1084805F024FAD9
:1015B000034600E0012318464037BD4680BD00BF0A
:1015C000840000240044025883DE1B43940300245B
:1015D0000010004080B400AF00BFFDE780B400AF52
:1015E00000BFFDE780B400AF00BFFDE780B400AFEF
:1015F00000BFFDE780B400AF00BFFDE780B400AFDF
:1016000000BFBD465DF8047B704780B500AF4FF466
:10161000005001F01CFB00BF80BD000080B500AF92
:10162000024805F061FA00BF80BD00BF94030024AA
:1016300080B400AF01231846BD465DF8047B7047B7
:1016400080B483B000AF78603960054B16221A6011
:101650004FF0FF3318460C37BD465DF8047B7047EA
:1016600028C1012480B582B000AF78604FF0FF310F
:101670007868FFF7E5FF00BFFDE780B586B000AFF3
:10168000F860B9607A6000237B610AE0AFF3008004
:101690000146BB685A1CBA60CAB21A707B69013332
:1016A0007B617A697B689A42F0DB7B681846183761
:1016B000BD4680BD80B586B000AFF860B9607A6085
:1016C00000237B6109E0BB685A1CBA601B7818468E
:1016D000FFF774FA7B6901337B617A697B689A4210
:1016E000F1DB7B6818461837BD4680BD80B483B0F7
:1016F00000AF78604FF0FF3318460C37BD465DF8F9
:10170000047B704780B483B000AF786039603B6879
:101710004FF400525A60002318460C37BD465DF85E
:10172000047B704780B483B000AF78600123184613
:101730000C37BD465DF8047B704780B485B000AFC0
:10174000F860B9607A60002318461437BD465DF82A
:10175000047B704780B487B000AF7860144A154BA3
:10176000D31A7B617B693B61134B1B68002B02D151
:10177000114B124A1A60104B1A687B6813443A697D
:101780009A4205D20E4B0C221A604FF0FF3309E04B
:10179000094B1B68FB60084B1A687B681344064AB8
:1017A0001360FB6818461C37BD465DF8047B704724
:1017B0000000082400040000E003002430C10124DC
:1017C00028C1012480B58EB000AF786000237B6310
:1017D000002387F8303000F07DF8174809F0D2F97F
:1017E0000346002B04D0154842F0E4FDFFF758FDF6
:1017F00007F1300318462BF09FFC78637B6B002BBE
:1018000004D00F4842F0D6FDFFF74AFD00233B739A
:1018100007F10C03013308220A49184643F096F8F1
:1018200007F10C03184600F00FF800F04FFB00BF63
:101830003837BD4680BD00BF080000246C6E040828
:10184000886E0408A46E040880B584B000AF786088
:101850000023FB601A4B00221A600622002119485F
:1018600042F006FF184842F0A5FD00224FF4004167
:10187000164801F0B9F97A68114915482BF046FD70
:10188000F86001224FF40041104801F0ADF9FB6807
:10189000002B07D14FF0FF3300220021002040F041
:1018A00075F905E000224FF48041084801F09CF9E9
:1018B00040F6B8303FF0BCFA00BF1037BD4680BDDF
:1018C000E4030024E8030024AC6E0408002002585E
:1018D000ED19000880B582B000AF01224FF48051AD
:1018E0002C4801F081F901224FF40051294801F000
:1018F0007BF901224FF48041264801F075F901225D
:101900004FF40041234801F06FF9234842F052FDA3
:10191000224842F04FFD224842F04CFD0023FB716B
:101920000DE0F91D012301221E4805F0AFFB4FF425
:101930000051184801F071F9642000F041FD0421C4
:10194000194801F039F90346012B02D1FB79002B2C
:10195000E7D001224FF400510E4801F045F9002272
:101960004FF480510B4801F03FF94FF48071094862
:1019700001F022F90346002B03D10C4842F01AFD76
:1019800004E00B4842F016FDFFF78AFC00BF083761
:10199000BD4680BD00200258E06F04081C7004089A
:1019A00068700408FC0200240028025890700408A3
:1019B000AC70040880B584B000AF78600023FB737E
:1019C0007B68213306220849184642F027FE034669
:1019D000002B03D10123FB73FB7B00E0FB7B18464C
:1019E0001037BD4680BD00BFE80300242DE9F0415B
:1019F00096B008AFF862B962134687F82730BB6A21
:101A00007B637B6B002B6FD097F82730012B07D1BE
:101A1000384B186800230022002140F017F963E0DA
:101A2000FB6A002B60D097F82730002B5CD1FB6A53
:101A30001B78002B58D0F86AFFF7BCFF034683F0F1
:101A40000103DBB2002B4FD07B6B1B685A1C7B6BF6
:101A50001A60FB6A03F12102274B10681860928814
:101A60009A807B6B1E68FB6A3B62FB6AB3F9283085
:101A70009846FB6A93F83830FB61FB6A93F8213093
:101A8000BB61FB6A93F822307B61FB6A93F82330D9
:101A90003B61FB6A93F82430FB60FB6A93F82530C6
:101AA000BB60FB6A93F826307B60FB6A5B6BDA17DE
:101AB0001C4615462046294600F022F803460793A7
:101AC00079680691B9680591F968049139690391BB
:101AD00079690291B9690191F969009143463A6ABD
:101AE0003146064842F0FEFB00BF3837BD46BDE830
:101AF000F08100BF90030024E8030024E470040890
:101B000080B483B000AFC7E90001D7E90023A4493E
:101B100011440B4300F03681D7E90023A1498A42E2
:101B200073F1000380F23481D7E900239E49114408
:101B30000B4300F01581D7E900239C498A4273F1D9
:101B4000000380F22581D7E9002302F160410B43B5
:101B500000F01A81D7E9002395498A4273F1000306
:101B600080F21681D7E90023924911440B4300F01B
:101B70000781D7E9002390498A4273F1000380F27C
:101B80000781D7E900238D4911440B4300F0F6800B
:101B9000D7E900238A498A4273F1000380F2F88072
:101BA000D7E90023874911440B4300F0E580D7E9CA
:101BB000002385498A4273F1000380F2E980D7E966
:101BC0000023824911440B4300F0D480D7E900235D
:101BD0007F498A4273F1000380F2DA80D7E900235B
:101BE0007C4911440B4300F0C380D7E900237A49B4
:101BF0008A4273F1000380F2CB80D7E90023774952
:101C000011440B4300F0B280D7E9002374498A42A3
:101C100073F1000380F2BC80D7E9002371491144BD
:101C20000B4300F0A180D7E900236F498A4273F18A
:101C3000000380F2AD80D7E900236C4911440B43C7
:101C400000F09080D7E9002369498A4273F10003CC
:101C500080F29E80D7E90023664911440B437DD072
:101C6000D7E9002364498A4273F1000380F290802F
:101C7000D7E90023614911440B436BD0D7E9002316
:101C80005F498A4273F1000380F28280D7E9002322
:101C90005C4911440B435FD0D7E900235A498A427B
:101CA00073F1000374DAD7E90023584911440B4358
:101CB0004ED0D7E9002356498A4273F1000367DA10
:101CC000D7E90023534911440B433FD0D7E9002300
:101CD00051498A4273F100035ADAD7E900234F4988
:101CE00011440B4330D0D7E900234D498A4273F1A8
:101CF00000034DDAD7E900236FF4004111440B4390
:101D000020D0D7E9002348F202018A4273F1000390
:101D10003EDAD7E90023111F0B4337D0D7E9002360
:101D2000052A73F1000333DAD7E90023134305D002
:101D3000D7E90023511E0B4302D029E0394B28E09C
:101D4000394B26E0394B24E0394B22E0394B20E077
:101D5000394B1EE0394B1CE0394B1AE0394B18E087
:101D6000394B16E0394B14E0394B12E0394B10E097
:101D7000394B0EE0394B0CE0394B0AE0394B08E0A7
:101D8000394B06E0394B04E0394B02E0394B00E0B7
:101D9000394B18460C37BD465DF8047B704700BFD1
:101DA000FCFFBFBD05004042FCFFBFBF0500404037
:101DB00001000020FAFFBFFD07004002FCFFBFFD4D
:101DC00005004002FEFFBFFD03004002FAFFDFFDF9
:101DD00007002002FCFFDFFD05002002FEFFDFFD03
:101DE00003002002FCFFBFFE05004001FCFFFFFED8
:101DF00005000001FAFFBFFF07004000FCFFBFFF26
:101E000005004000FEFFBFFF03004000FAFFDFFFB8
:101E100007002000FCFFDFFF05002000FEFFDFFFC2
:101E20000300200038710408407104084871040858
:101E30005471040864710408707104088071040806
:101E400090710408A0710408B0710408C0710408FE
:101E5000CC710408DC710408F071040804720408F1
:101E60001C72040834720408487204086072040882
:101E700074720408807204088C72040880B586B0FD
:101E800002AF786039607B68DBB23B737B681B0A0A
:101E9000DBB27B737B681B0CDBB2BB737B681B0EF6
:101EA000DBB2FB733B7B19467B7B1846BB7BFA7B23
:101EB0000192009303460A463968034842F012FA39
:101EC00000BF1037BD4680BDA0720408B0B5BEB0DB
:101ED00004AF0023C7F8E43007F16403782200213F
:101EE000184642F0C5FB07F15003142200211846A2
:101EF00042F0BEFB07F1640308227F49184642F016
:101F000025FD07F1640321330B227C49184642F07A
:101F10001DFD7B4BC7F8C83007F1640319467948AB
:101F200042F0E0F90023C7F8E03023E007F1500267
:101F300007F16403114618462BF014FCC7F8E400BF
:101F4000D7F8E430002B06D107F1640319466E4838
:101F500042F0C8F912E0D7F8E430642219466B4821
:101F600042F0C0F964203EF063FFD7F8E03001335F
:101F7000C7F8E030D7F8E030022BD7D9D7F8E430F3
:101F8000002B03D0624842F015FAB2E03B1D184620
:101F90002CF060F9C7F8E400D7F8E430002B05D046
:101FA000D7F8E4105B4842F09DF9A2E0B7F932306F
:101FB0001946594842F096F997F83430194657486F
:101FC00042F090F997F82530184697F826301C46CD
:101FD00097F827301D4697F8283097F8292097F86A
:101FE0002A100291019200932B46224601464C484A
:101FF00042F078F907F15003194600202BF084FFD6
:10200000C7F8E400D7F8E430002B05D0D7F8E41087
:10201000444842F067F96CE07B6D43491846FFF78E
:102020002DFF07F13C03194600202CF03BF8C7F8C0
:10203000E400D7F8E430002B05D0D7F8E4103B4893
:1020400042F050F955E03B6C39491846FFF716FF4E
:102050004FF4FA603EF0ECFE0023C7F8DC302EE0CF
:1020600007F1380307F13C0140F6B83200202CF0AC
:102070006BF9C7F8E400D7F8E430002B05D0D7F8A7
:10208000E4302C4A934206D009E0BB6B19462A483B
:1020900042F028F90EE0294842F08CF90AE0D7F81E
:1020A000E4309B0CD7F8E42092B21946244842F061
:1020B00019F900BFD7F8DC300133C7F8DC30D7F8A6
:1020C000DC30B3F5FA6FCBDB1E4842F073F92BF02E
:1020D0009DFEC7F8E400D7F8E430002B04D0D7F811
:1020E000E410194842F0FEF840F6B8303EF0A0FE89
:1020F00012E7E837BD46B0BDA46E0408B872040804
:1021000004004000C4720408EC7204081C73040844
:102110006C730408A4730408DC730408EC730408EB
:10212000FC7304081C7404084C74040854740408F8
:102130008C74040801002E08A4740408D0740408E8
:10214000E0740408087504081C75040880B500AF25
:1021500008F03CF900BF80BD80B582B000AF0346F7
:10216000FB80FB88184607F057FB00BF0837BD46C9
:1021700080BD0000DFF834D0FEF786FC0C480D4926
:102180000D4A002302E0D458C4500433C4188C42D2
:10219000F9D30A4A0A4C002301E013600432A24238
:1021A000FBD342F0AFFBFEF71BFD70470000082495
:1021B00000000024C8020024C4980B08E002002498
:1021C0002CC10124FEE780B582B000AF78607B6847
:1021D000002B05D172B600BFFFF762F800BFFDE724
:1021E00000BF0837BD4680BD80B584B000AF7860C1
:1021F0007B68002B05D172B600BFFFF751F800BF16
:10220000FDE7EFF30583FB60FB68002B05D072B69A
:1022100000BFFFF745F800BFFDE73EF025FF00BF18
:102220001037BD4680BD80B584B000AF78607B6854
:10223000002B05D172B600BFFFF732F800BFFDE7F3
:10224000EFF30583FB60FB68002B05D072B600BF7F
:10225000FFF726F800BFFDE73EF014FF00BF103780
:10226000BD4680BD80B582B000AF78607B68002B32
:1022700003D10F4B16221A6016E0012040F0F4F94A
:1022800003461A467B681A607B681B68002B05D0E2
:102290007B681B681846FFF796FF05E072B600BF23
:1022A000FEF7FEFF00BFFDE70837BD4680BD00BF5B
:1022B00028C1012480B582B000AF78607B68002B14
:1022C00005D172B600BFFEF7EBFF00BFFDE77B68EC
:1022D0001846FFF789FF00BF0837BD4680BD80B5AF
:1022E00082B000AF78607B68002B05D172B600BF6A
:1022F000FEF7D6FF00BFFDE77B681846FFF793FFA8
:1023000000BF0837BD4680BD80B582B000AF032056
:1023100000F057F901F0B8FB0246154B9B691B0A08
:1023200003F00F031349CB5C03F01F0322FA03F3FE
:102330007B600F4B9B6903F00F030E4AD35C03F0E5
:102340001F037A6822FA03F30B4A13600B4A7B6877
:1023500013600020FFF7D2F80346002B01D00123C1
:1023600002E0FEF7A3FF002318460837BD4680BDF4
:10237000004402587CFD04080400002400000024EE
:1023800080B400AF064B1B781A46064B1B681344FB
:10239000044A136000BFBD465DF8047B704700BF70
:1023A00088000024F803002480B400AF034B1B68AE
:1023B0001846BD465DF8047B704700BFF803002453
:1023C00080B584B000AF7860FFF7EEFFB8607B683F
:1023D000FB60FB68B3F1FF3F05D00A4B1B781A4640
:1023E000FB681344FB6000BFFFF7DEFF0246BB68DB
:1023F000D31AFA689A42F7D800BF00BF1037BD461B
:1024000080BD00BF8800002480B400AF034B1B6870
:102410001B0C1846BD465DF8047B70470010005C3D
:1024200080B485B000AF78607B6803F00703FB6081
:102430000B4BDB68BB60BA684FF6FF031340BB6011
:10244000FB681A02BB681A43064B1343BB60044A7D
:10245000BB68D36000BF1437BD465DF8047B70478E
:1024600000ED00E00000FA0580B400AF044BDB682B
:102470001B0A03F007031846BD465DF8047B70474E
:1024800000ED00E080B483B000AF0346FB80B7F9F5
:102490000630002B0BDBFB8803F01F020749B7F95E
:1024A00006305B09012000FA02F241F8232000BF48
:1024B0000C37BD465DF8047B704700BF00E100E0CB
:1024C00080B483B000AF0346FB80B7F90630002B21
:1024D00012DBFB8803F01F020A49B7F906305B09DB
:1024E000012000FA02F2203341F82320BFF34F8F7E
:1024F00000BFBFF36F8F00BF00BF0C37BD465DF854
:10250000047B704700E100E080B483B000AF034675
:102510003960FB80B7F90630002B0ADB3B68DAB282
:102520000C49B7F906301201D2B20B4483F80023EC
:102530000AE03B68DAB20849FB8803F00F03043B6A
:102540001201D2B20B441A7600BF0C37BD465DF8BB
:10255000047B704700E100E000ED00E080B489B04A
:1025600000AFF860B9607A60FB6803F00703FB61B5
:10257000FB69C3F10703042B28BF0423BB61FB697C
:102580000433062B02D9FB69033B00E000237B6187
:102590004FF0FF32BB6902FA03F3DA43BB681A401B
:1025A0007B699A404FF0FF317B6901FA03F3D9430D
:1025B0007B680B40134318462437BD465DF8047B07
:1025C000704780B582B000AF78607868FFF728FF69
:1025D00000BF0837BD4680BD80B586B000AF03465A
:1025E000B9607A60FB81FFF73FFF78617A68B9686C
:1025F0007869FFF7B3FF0246B7F90E301146184667
:10260000FFF782FF00BF1837BD4680BD80B582B09E
:1026100000AF0346FB80B7F906301846FFF732FFDC
:1026200000BF0837BD4680BD80B582B000AF03460D
:10263000FB80B7F906301846FFF742FF00BF0837A6
:10264000BD4680BD80B489B000AF7860396000239A
:10265000FB61894B7B6194E13B681A680121FB694E
:1026600001FA03F313403B613B69002B00F08681C4
:102670003B685B6803F00303012B05D03B685B6894
:1026800003F00303022B30D17B689B68BB61FB69BD
:102690005B00032202FA03F3DB43BA691340BB6118
:1026A0003B68DA68FB695B0002FA03F3BA6913431B
:1026B000BB617B68BA699A607B685B68BB61012219
:1026C000FB6902FA03F3DB43BA691340BB613B6861
:1026D0005B681B0903F00102FB6902FA03F3BA69A4
:1026E0001343BB617B68BA695A603B685B6803F05F
:1026F0000303032B17D07B68DB68BB61FB695B00BE
:10270000032202FA03F3DB43BA691340BB613B685F
:102710009A68FB695B0002FA03F3BA691343BB6171
:102720007B68BA69DA603B685B6803F00303022BDD
:1027300023D1FB69DA087B68083253F82230BB6189
:10274000FB6903F007039B000F2202FA03F3DB434C
:10275000BA691340BB613B681A69FB6903F0070360
:102760009B0002FA03F3BA691343BB61FB69DA0801
:102770007B680832B96943F822107B681B68BB612B
:10278000FB695B00032202FA03F3DB43BA691340DF
:10279000BB613B685B6803F00302FB695B0002FA04
:1027A00003F3BA691343BB617B68BA691A603B687B
:1027B0005B6803F44033002B00F0E0802F4BD3F82C
:1027C000F4302E4A43F00203C2F8F4302B4BD3F816
:1027D000F43003F00203FB60FB68294AFB699B08A5
:1027E000023352F82330BB61FB6903F003039B0003
:1027F0000F2202FA03F3DB43BA691340BB617B6823
:10280000204A934252D07B681F4A934231D07B6862
:102810001E4A93422BD07B681D4A934225D07B6889
:102820001C4A93421FD07B681B4A934219D07B6895
:102830001A4A934213D07B68194A93420DD07B68A1
:10284000184A934207D07B68174A934201D1092363
:102850002DE00A232BE0082329E0072327E00623A5
:1028600025E0052323E0042321E003231FE00223C6
:102870001DE001231BE000BF800000580044025807
:1028800000040058000002580004025800080258D2
:10289000000C025800100258001402580018025888
:1028A000001C025800200258002402580023FA6934
:1028B00002F0030292009340BA691343BB613849A6
:1028C000FB699B080233BA6941F823204FF0B043FB
:1028D0001B68BB613B69DB43BA691340BB613B6862
:1028E0005B6803F48013002B03D0BA693B69134380
:1028F000BB614FF0B042BB6913604FF0B0435B68FF
:10290000BB613B69DB43BA691340BB613B685B68F1
:1029100003F40013002B03D0BA693B691343BB6176
:102920004FF0B042BB6953607B695B68BB613B6938
:10293000DB43BA691340BB613B685B6803F4003357
:10294000002B03D0BA693B691343BB617B69BA6949
:102950005A607B691B68BB613B69DB43BA69134002
:10296000BB613B685B6803F48033002B03D0BA691A
:102970003B691343BB617B69BA691A60FB69013328
:10298000FB613B681A68FB6922FA03F3002B7FF4B2
:1029900063AE00BF00BF2437BD465DF8047B7047BF
:1029A0000004005880B487B000AF7860396000231D
:1029B0007B61754B3B61D9E001227B6902FA03F32D
:1029C0003A681340FB60FB68002B00F0CC806F4A34
:1029D0007B699B08023352F82330BB607B6903F0AC
:1029E00003039B000F2202FA03F3BA681340BB6093
:1029F0007B68674A934237D07B68664A934231D0FE
:102A00007B68654A93422BD07B68644A934225D009
:102A10007B68634A93421FD07B68624A934219D015
:102A20007B68614A934213D07B68604A93420DD021
:102A30007B685F4A934207D07B685E4A934201D12C
:102A4000092312E00A2310E008230EE007230CE01C
:102A500006230AE0052308E0042306E0032304E03C
:102A6000022302E0012300E000237A6902F003025E
:102A700092009340BA689A4236D13B691A68FB6863
:102A8000DB431A403B691A603B695A68FB68DB43C9
:102A90001A403B695A604FF0B0435A68FB68DB4309
:102AA0004FF0B04113404B604FF0B0431A68FB68E1
:102AB000DB434FF0B04113400B607B6903F003032D
:102AC0009B000F2202FA03F3BB60304A7B699B082C
:102AD000023352F82310BB68DA432C487B699B0809
:102AE0000A40023340F823207B681A687B695B0048
:102AF000032101FA03F31A437B681A607B69DA0841
:102B00007B68083253F822107B6903F007039B00AF
:102B10000F2202FA03F3DB437A69D20819407B687B
:102B2000083243F822107B68DA687B695B00032176
:102B300001FA03F3DB431A407B68DA607B685A686A
:102B400001217B6901FA03F3DB431A407B685A6079
:102B50007B689A687B695B00032101FA03F3DB431E
:102B60001A407B689A607B6901337B613A687B69B4
:102B700022FA03F3002B7FF41FAF00BF00BF1C3706
:102B8000BD465DF8047B7047800000580004005883
:102B9000000002580004025800080258000C0258B5
:102BA000001002580014025800180258001C025865
:102BB000002002580024025880B485B000AF78602D
:102BC0000B467B807B681A697B881340002B02D000
:102BD0000123FB7301E00023FB73FB7B18461437D2
:102BE000BD465DF8047B704780B483B000AF786069
:102BF0000B467B8013467B707B78002B03D07A8852
:102C00007B689A6103E07B881A047B689A6100BF45
:102C10000C37BD465DF8047B704780B485B000AFCB
:102C200078600B467B807B685B69FB607A88FB6819
:102C300013401A04FB68D9437B880B401A437B6816
:102C40009A6100BF1437BD465DF8047B704780B5BC
:102C500082B000AF0346FB804FF0B043D3F888202A
:102C6000FB881340002B08D04FF0B042FB88C2F81D
:102C70008830FB881846FFF76FFA00BF0837BD465B
:102C800080BD000080B483B000AF7860084A7B68E4
:102C9000203352F82330074A934201D1002300E049
:102CA000012318460C37BD465DF8047B704700BF12
:102CB000006402580003008080B483B000AF7860E5
:102CC000396006493B6843F440727B6841F8232031
:102CD00000BF0C37BD465DF8047B704700640258A6
:102CE00080B584B000AF7860294BDB6803F0070340
:102CF000062B0AD0264BDB6803F03F037A689A4222
:102D000001D0012340E000233EE0214BDB6823F0AB
:102D10003F021F497B681343CB60FFF745FBF86018
:102D200009E0FFF741FB0246FB68D31AB3F57A7F4F
:102D300001D9012328E0164B5B6803F40053B3F577
:102D4000005FEED17B681E2B08D07B682E2B05D050
:102D50007B681D2B02D07B682D2B14D1FFF724FB41
:102D6000F86009E0FFF720FB0246FB68D31AB3F5D1
:102D70007A7F01D9012307E0054BDB6803F4803338
:102D8000B3F5803FEED1002318461037BD4680BD15
:102D90000048025880B58CB000AF78607B68002B8B
:102DA00002D1012300F048BC7B681B6803F00103DB
:102DB000002B00F08880994B1B6903F03803FB62FD
:102DC000964B9B6ABB62FB6A102B07D0FB6A182BE1
:102DD00011D1BB6A03F00303022B0CD18F4B1B688C
:102DE00003F40033002B6DD07B685B68002B69D146
:102DF000012300F021BC7B685B68B3F5803F06D1FE
:102E0000864B1B68854A43F4803313602EE07B6851
:102E10005B68002B0CD1814B1B68804A23F4803304
:102E200013607E4B1B687D4A23F4802313601DE0F2
:102E30007B685B68B3F5A02F0CD1784B1B68774A91
:102E400043F480231360754B1B68744A43F480334A
:102E500013600BE0714B1B68704A23F480331360DE
:102E60006E4B1B686D4A23F4802313607B685B689C
:102E7000002B13D0FFF798FA786208E0FFF794FA76
:102E800002467B6AD31A642B01D90323D4E3634B34
:102E90001B6803F40033002BF0D014E0FFF784FA32
:102EA000786208E0FFF780FA02467B6AD31A642B47
:102EB00001D90323C0E3594B1B6803F40033002BF3
:102EC000F0D100E000BF7B681B6803F00203002B19
:102ED00000F0CA80514B1B6903F038033B624F4B33
:102EE0009B6AFB613B6A002B07D03B6A182B56D1CB
:102EF000FB6903F00303002B51D1484B1B6803F01F
:102F00000403002B05D07B68DB68002B01D1012373
:102F100092E3424B1B6823F019027B68DB683F4950
:102F200013430B60FFF740FA786208E0FFF73CFAC2
:102F300002467B6AD31A022B01D903237CE3374B69
:102F40001B6803F00403002BF0D0FFF75DFA034683
:102F500041F20302934217D87B681B69402B08D1CA
:102F60002E4B5B6823F47C332C4A43F400335360CC
:102F70007AE02A4B5B6823F47C327B681B691B0375
:102F8000264913434B606FE0244B5B6823F0FE42FD
:102F90007B681B691B06214913434B6064E07B6817
:102FA000DB68002B47D01D4B1B6823F019027B68A0
:102FB000DB681A4913430B60FFF7F6F9786208E003
:102FC000FFF7F2F902467B6AD31A022B01D90323D9
:102FD00032E3124B1B6803F00403002BF0D0FFF721
:102FE00013FA034641F20302934219D87B681B6926
:102FF000402B08D1094B5B6823F47C33074A43F428
:103000000033536030E0054B5B6823F47C327B680F
:103010001B691B03014913434B6025E00044025820
:103020009A4B5B6823F0FE427B681B691B0697493D
:1030300013434B6018E0954B1B68944A23F001033F
:103040001360FFF7B1F9786208E0FFF7ADF90246C7
:103050007B6AD31A022B01D90323EDE28B4B1B6849
:1030600003F00403002BF0D17B681B6803F010030E
:10307000002B00F0A980854B1B6903F03803BB616E
:10308000824B9B6A7B61BB69082B07D0BB69182BFD
:103090003AD17B6903F00303012B35D17B4B1B68CD
:1030A00003F48073002B05D07B68DB69802B01D093
:1030B0000123C1E2FFF7A8F9034641F2030293425C
:1030C00017D87B681B6A202B08D1704B5B6823F0F4
:1030D000F8436E4A43F08043536075E06B4B5B6886
:1030E00023F0F8427B681B6A9B06684913434B60D8
:1030F0006AE0664BDB6823F07C527B681B6A1B0628
:1031000062491343CB605FE07B68DB69002B42D0F0
:103110005E4B1B685D4A43F080031360FFF744F980
:10312000786208E0FFF740F902467B6AD31A022B67
:1031300001D9032380E2554B1B6803F48073002BF5
:10314000F0D0FFF761F9034641F20302934217D82A
:103150007B681B6A202B08D14C4B5B6823F0F8433B
:103160004A4A43F0804353602EE0484B5B6823F0AB
:10317000F8427B681B6A9B06444913434B6023E07B
:10318000424BDB6823F07C527B681B6A1B063F497D
:103190001343CB6018E03D4B1B683C4A23F080038F
:1031A0001360FFF701F9786208E0FFF7FDF80246C7
:1031B0007B6AD31A022B01D903233DE2334B1B68F0
:1031C00003F48073002BF0D17B681B6803F00803C5
:1031D000002B36D07B685B69002B19D02B4B5B6FC3
:1031E0002A4A43F001035367FFF7DEF8786208E0EC
:1031F000FFF7DAF802467B6AD31A022B01D90323C0
:103200001AE2224B5B6F03F00203002BF0D018E0B0
:103210001E4B5B6F1D4A23F001035367FFF7C4F891
:10322000786208E0FFF7C0F802467B6AD31A022BE7
:1032300001D9032300E2154B5B6F03F00203002B5F
:10324000F0D17B681B6803F02003002B39D07B682A
:103250009B69002B1CD00D4B1B680C4A43F4805318
:103260001360FFF7A1F8786208E0FFF79DF80246C7
:103270007B6AD31A022B01D90323DDE1034B1B68C0
:1032800003F40053002BF0D01BE000BF00440258B1
:103290009B4B1B689A4A23F480531360FFF784F812
:1032A000786208E0FFF780F802467B6AD31A022BA7
:1032B00001D90323C0E1924B1B6803F40053002B98
:1032C000F0D17B681B6803F00403002B00F08180C1
:1032D0008C4B1B688B4A43F480731360FFF764F8D0
:1032E000786208E0FFF760F802467B6AD31A642B25
:1032F00001D90323A0E1834B1B6803F48073002BE7
:10330000F0D07B689B68012B06D17D4B1B6F7C4AFC
:1033100043F0010313672DE07B689B68002B0CD101
:10332000774B1B6F764A23F001031367744B1B6FB7
:10333000734A23F0040313671CE07B689B68052B2A
:103340000CD16F4B1B6F6E4A43F0040313676C4B39
:103350001B6F6B4A43F0010313670BE0684B1B6F55
:10336000674A23F001031367654B1B6F644A23F020
:10337000040313677B689B68002B15D0FFF714F8D4
:1033800078620AE0FFF710F802467B6AD31A41F22E
:103390008832934201D903234EE1594B1B6F03F04E
:1033A0000203002BEED014E0FEF7FEFF78620AE085
:1033B000FEF7FAFF02467B6AD31A41F28832934243
:1033C00001D9032338E14E4B1B6F03F00203002B9E
:1033D000EED17B685B6A002B00F02D81484B1B69A6
:1033E00003F03803182B00F0BD807B685B6A022B6A
:1033F00040F09E80424B1B68414A23F0807313606B
:10340000FEF7D2FF786208E0FEF7CEFF02467B6A45
:10341000D31A022B01D903230EE1394B1B6803F0A9
:103420000073002BF0D1364B9A6A374B13407A6801
:10343000916A7A68D26A12010A43314913438B6256
:103440007B681B6B013BC3F308027B685B6B013B32
:103450005B029BB21A437B689B6B013B1B0403F42A
:10346000FE031A437B68DB6B013B1B0603F0FE4344
:10347000234913430B63224BDB6A214A23F00103E8
:10348000D3621F4B5A6B214B13407A68926CD20067
:103490001B4913434B631A4BDB6A23F00C027B6816
:1034A0001B6C17491343CB62154BDB6A23F00202F6
:1034B0007B685B6C12491343CB62114BDB6A104A89
:1034C00043F48033D3620E4BDB6A0D4A43F400337E
:1034D000D3620B4BDB6A0A4A43F48023D362084B66
:1034E000DB6A074A43F00103D362054B1B68044AB9
:1034F00043F080731360FEF757FF786211E000BF5E
:1035000000440258004802580CFCFFFF0700FFFF70
:10351000FEF74AFF02467B6AD31A022B01D9032326
:103520008AE0474B1B6803F00073002BF0D082E069
:10353000434B1B68424A23F080731360FEF734FF4D
:10354000786208E0FEF730FF02467B6AD31A022B4E
:1035500001D9032370E03A4B1B6803F00073002B82
:10356000F0D168E0364B9B6A3B61354B1B6BFB60CF
:103570007B685B6A012B31D03B6903F003027B68F7
:103580009B6A9A422AD13B691B0903F03F027B6880
:10359000DB6A9A4222D1FB68C3F308027B681B6B8B
:1035A000013B9A421AD1FB685B0A03F07F027B68F9
:1035B0005B6B013B9A4211D1FB681B0C03F07F024D
:1035C0007B689B6B013B9A4208D1FB681B0E03F0A2
:1035D0007F027B68DB6B013B9A4201D001232BE029
:1035E000174B5B6BDB08C3F30C033B617B689B6C85
:1035F0003A699A421FD0124BDB6A114A23F0010349
:10360000D362FEF7D1FE786200BFFEF7CDFE024620
:103610007B6A9342F9D00A4B5A6B0A4B13407A6883
:10362000926CD200064913434B63054BDB6A044A94
:1036300043F00103D362002318463037BD4680BDF6
:10364000004402580700FFFF80B586B000AF7860E5
:1036500039607B68002B01D101239CE18A4B1B68F8
:1036600003F00F033A689A4210D9874B1B6823F086
:103670000F0285493B6813430B60834B1B6803F0C3
:103680000F033A689A4201D0012384E17B681B68EA
:1036900003F00403002B10D07B681A697B4B9B69F5
:1036A00003F070039A4208D9784B9B6923F07002AB
:1036B0007B681B69754913438B617B681B6803F04A
:1036C0000803002B10D07B685A69704BDB6903F04C
:1036D00070039A4208D96D4BDB6923F070027B6856
:1036E0005B696A491343CB617B681B6803F0100375
:1036F000002B10D07B689A69644BDB6903F4E063AC
:103700009A4208D9614BDB6923F4E0627B689B69CC
:103710005E491343CB617B681B6803F02003002BD9
:1037200010D07B68DA69594B1B6A03F070039A4228
:1037300008D9564B1B6A23F070027B68DB6953493A
:1037400013430B627B681B6803F00203002B10D04D
:103750007B68DA684D4B9B6903F00F039A4208D9E6
:103760004A4B9B6923F00F027B68DB684749134390
:103770008B617B681B6803F00103002B55D0434B22
:103780009B6923F470627B689B68404913438B619B
:103790007B685B68022B07D13C4B1B6803F400334A
:1037A000002B21D10123F6E07B685B68032B07D156
:1037B000364B1B6803F00073002B15D10123EAE0A0
:1037C0007B685B68012B07D1304B1B6803F4807367
:1037D000002B09D10123DEE02C4B1B6803F004030E
:1037E000002B01D10123D6E0284B1B6923F00702EF
:1037F0007B685B68254913430B61FEF7D5FD786153
:103800000AE0FEF7D1FD02467B69D31A41F2883205
:10381000934201D90323BEE01C4B1B6903F038021D
:103820007B685B68DB009A42EBD17B681B6803F026
:103830000203002B10D07B68DA68144B9B6903F0FD
:103840000F039A4208D2114B9B6923F00F027B6849
:10385000DB680E4913438B610B4B1B6803F00F03AE
:103860003A689A4214D2084B1B6823F00F020649AB
:103870003B6813430B60044B1B6803F00F033A686B
:103880009A4205D0012386E00020005200440258ED
:103890007B681B6803F00403002B10D07B681A6957
:1038A0003F4B9B6903F070039A4208D23C4B9B69E3
:1038B00023F070027B681B69394913438B617B6875
:1038C0001B6803F00803002B10D07B685A69344B47
:1038D000DB6903F070039A4208D2314BDB6923F0B5
:1038E00070027B685B692E491343CB617B681B6860
:1038F00003F01003002B10D07B689A69284BDB691A
:1039000003F4E0639A4208D2254BDB6923F4E062BA
:103910007B689B6922491343CB617B681B6803F07A
:103920002003002B10D07B68DA691D4B1B6A03F063
:1039300070039A4208D21A4B1B6A23F070027B680C
:10394000DB69174913430B6200F09EF80246144BE3
:103950009B691B0A03F00F031249CB5C03F01F03A2
:1039600022FA03F33B610E4B9B6903F00F030D4AF0
:10397000D35C03F01F033A6922FA03F30A4A136087
:103980000A4A3B6913600A4B1B681846FDF7B6FDEF
:103990000346FB73FB7B18461837BD4680BD00BF4E
:1039A000004402587CFD04080400002400000024A8
:1039B0008400002480B58CB000AFF860B9607A60F4
:1039C000FB68002B2AD12D4BD3F8E0302B4A43F073
:1039D0000103C2F8E030294BD3F8E03003F00103D3
:1039E000BB61BB694FF48073FB6102233B6203231D
:1039F000BB6200237B620023FB6207F11C031946B4
:103A00001F48FEF71FFE1D4B1B6923F0FE72B968AD
:103A10007B680B43194913430B612AE0174BD3F81A
:103A2000E030164A43F00403C2F8E030134BD3F8F9
:103A3000E03003F004037B617B694FF40073FB61AA
:103A400002233B620323BB6200237B620023FB62F1
:103A500007F11C0319460B48FEF7F4FD074B1B69E1
:103A600023F07E427B68D901BB680B4303491343B3
:103A70000B6100BF3037BD4680BD00BF0044025817
:103A8000000002580008025880B489B000AFB34B60
:103A90001B6903F03803182B00F2558101A252F87C
:103AA00023F000BF093B0008473D0008473D0008E0
:103AB000473D0008473D0008473D0008473D0008D6
:103AC000473D00082F3B0008473D0008473D0008E0
:103AD000473D0008473D0008473D0008473D0008B6
:103AE000473D0008353B0008473D0008473D0008BA
:103AF000473D0008473D0008473D0008473D000896
:103B0000473D00083B3B0008944B1B6803F0200333
:103B1000002B09D0914B1B68DB0803F00303904A8C
:103B200022FA03F3BB6111E18D4BBB610EE18D4BBA
:103B3000BB610BE18C4BBB6108E1884B9B6A03F0D6
:103B400003037B61854B9B6A1B0903F03F033B61C9
:103B5000824BDB6A03F00103FB60804B5B6BDB088D
:103B6000C3F30C03FA6802FB03F307EE903AF8EE96
:103B7000677AC7ED027A3B69002B00F0E1807B6930
:103B8000022B00F083807B69022B00F2A1807B690D
:103B9000002B03D07B69012B56D099E06F4B1B683B
:103BA00003F02003002B2DD06C4B1B68DB0803F0C7
:103BB00003036B4A22FA03F37B607B6807EE903ABB
:103BC000F8EE676A3B6907EE903AF8EE677A86EEA0
:103BD000A77A624B1B6BC3F3080307EE903AF8EE2B
:103BE000676A97ED026ADFED615AC6EE257A76EED6
:103BF000A77AF7EE006A77EEA67A67EE277AC7ED26
:103C0000077A87E03B6907EE903AF8EE677ADFEDD6
:103C1000586A86EEA77A514B1B6BC3F3080307EE75
:103C2000903AF8EE676A97ED026ADFED505AC6EEF9
:103C3000257A76EEA77AF7EE006A77EEA67A67EE37
:103C4000277AC7ED077A65E03B6907EE903AF8EE10
:103C5000677ADFED486A86EEA77A404B1B6BC3F3A9
:103C6000080307EE903AF8EE676A97ED026ADFED17
:103C70003F5AC6EE257A76EEA77AF7EE006A77EE1F
:103C8000A67A67EE277AC7ED077A43E03B6907EE2D
:103C9000903AF8EE677ADFED386A86EEA77A2F4B16
:103CA0001B6BC3F3080307EE903AF8EE676A97EDD3
:103CB000026ADFED2E5AC6EE257A76EEA77AF7EE87
:103CC000006A77EEA67A67EE277AC7ED077A21E0D9
:103CD0003B6907EE903AF8EE677ADFED266A86EEEA
:103CE000A77A1E4B1B6BC3F3080307EE903AF8EE5E
:103CF000676A97ED026ADFED1D5AC6EE257A76EE09
:103D0000A77AF7EE006A77EEA67A67EE277AC7ED14
:103D1000077A00BF114B1B6B5B0A03F07F03013373
:103D20003B603B6807EE903AB8EE677AD7ED076ADA
:103D3000C6EE877AFCEEE77A17EE903ABB6105E0B3
:103D40000023BB6102E0074BBB6100BFBB691846A3
:103D50002437BD465DF8047B704700BF004402581D
:103D60000090D00300093D0040787D01000000462E
:103D70000024744C0024744A20BCBE4B80B582B031
:103D800000AFFFF781FE0246104B9B691B0A03F050
:103D90000F030F49CB5C03F01F0322FA03F37B6090
:103DA0000A4B9B6903F00F03094AD35C03F01F031E
:103DB0007A6822FA03F3074A1360074A7B681360A4
:103DC000044B1B6818460837BD4680BD00440258A6
:103DD0007CFD0408040000240000002480B500AF2E
:103DE000FFF7CCFF0246064BDB691B0903F0070314
:103DF0000449CB5C03F01F0322FA03F3184680BD8D
:103E0000004402587CFD040880B500AFFFF7B6FF00
:103E10000246064BDB691B0A03F007030449CB5C2F
:103E200003F01F0322FA03F3184680BD0044025832
:103E30007CFD040880B483B000AF786039607B6893
:103E40003F221A601A4B1B6903F007027B685A6015
:103E5000174B9B6903F470627B689A60144B9B69F3
:103E600003F00F027B68DA60114B9B6903F070026C
:103E70007B681A610E4BDB6903F070027B685A6144
:103E80000B4BDB6903F4E0627B689A61084B1B6AA9
:103E900003F070027B68DA61064B1B6803F00F02C7
:103EA0003B681A6000BF0C37BD465DF8047B704765
:103EB00000440258002000522DE9B04FCCB000AFB2
:103EC000C7F81C01002387F82F31002387F82E3113
:103ED000D7F81C31D3E9002302F00064002554EA2E
:103EE000050349D0D7F81C31DB6EB3F5401F2FD046
:103EF000B3F5401F28D8B3F5001F1AD0B3F5001F43
:103F000022D8002B03D0B3F5801F07D01CE0B84B9C
:103F1000DB6AB74A43F40033D3621AE0D7F81C31A6
:103F200008330221184602F0A1FB034687F82F311F
:103F30000FE0D7F81C3128330221184602F048FC64
:103F4000034687F82F3104E0012387F82F3100E082
:103F500000BF97F82F31002B0AD1A54B1B6D23F41E
:103F60004011D7F81C31DB6EA14A0B43136503E007
:103F700097F82F3187F82E31D7F81C31D3E9002379
:103F800002F480784FF0000958EA090347D0D7F8C7
:103F90001C31DB6D042B2AD801A252F823F000BF9C
:103FA000B53F0008C33F0008D93F0008F73F0008AD
:103FB000F73F00088E4BDB6A8D4A43F40033D3622F
:103FC0001AE0D7F81C3108330021184602F04EFBE6
:103FD000034687F82F310FE0D7F81C312833002132
:103FE000184602F0F5FB034687F82F3104E0012361
:103FF00087F82F3100E000BF97F82F31002B0AD14E
:104000007B4B1B6D23F00701D7F81C31DB6D784A21
:104010000B43136503E097F82F3187F82E31D7F85B
:104020001C31D3E9002302F4007A4FF0000B5AEA66
:104030000B034CD0D7F81C311B6EB3F5807F30D00A
:10404000B3F5807F29D8C02B2DD0C02B25D8802B4D
:1040500018D0802B21D8002B02D0402B07D01CE099
:10406000634BDB6A624A43F40033D3621CE0D7F847
:104070001C3108330021184602F0F8FA034687F88D
:104080002F3111E0D7F81C3128330021184602F0F7
:104090009FFB034687F82F3106E0012387F82F3175
:1040A00002E000BF00E000BF97F82F31002B0AD1DB
:1040B0004F4B1B6D23F4E071D7F81C311B6E4C4A3B
:1040C0000B43136503E097F82F3187F82E31D7F8AB
:1040D0001C31D3E9002302F48063C7F810310023B8
:1040E000C7F81431D7E944120B46134353D0D7F81D
:1040F0001C31D3F8AC30B3F5000F35D0B3F5000F59
:104100002ED8B3F5C00F31D0B3F5C00F28D8B3F512
:10411000800F1AD0B3F5800F22D8002B03D0B3F54F
:10412000001F07D01CE0324BDB6A314A43F40033F6
:10413000D3621CE0D7F81C3108330021184602F086
:1041400095FA034687F82F3111E0D7F81C31283350
:104150000021184602F03CFB034687F82F3106E0A9
:10416000012387F82F3102E000BF00E000BF97F87D
:104170002F31002B0BD11E4B9B6D23F46001D7F820
:104180001C31D3F8AC301A4A0B43936503E097F81F
:104190002F3187F82E31D7F81C31D3E9002302F4F0
:1041A0000063C7F808310023C7F80C31D7E9421281
:1041B0000B46134356D0D7F81C31D3F8B030B3F1C7
:1041C000806F38D0B3F1806F31D8B3F1407F34D0F5
:1041D000B3F1407F2BD8B3F1007F1DD0B3F1007F46
:1041E00025D8002B06D0B3F1807F0AD01FE000BF96
:1041F00000440258A24BDB6AA14A43F40033D36265
:104200001CE0D7F81C3108330021184602F02EFAC2
:10421000034687F82F3111E0D7F81C3128330021ED
:10422000184602F0D5FA034687F82F3106E001233D
:1042300087F82F3102E000BF00E000BF97F82F3170
:10424000002B0BD18E4B9B6D23F0E061D7F81C3116
:10425000D3F8B0308A4A0B43936503E097F82F31C7
:1042600087F82E31D7F81C31D3E9002302F0007310
:10427000C7F800310023C7F80431D7E940120B46D4
:1042800013433AD0D7F81C31DB6C302B1FD0302BC6
:1042900019D8202B0CD0202B15D8002B19D0102B7F
:1042A00011D1774BDB6A764A43F40033D36211E0D5
:1042B000D7F81C3108330221184602F0D7F903461B
:1042C00087F82F3106E0012387F82F3102E000BF85
:1042D00000E000BF97F82F31002B0AD1684BDB6C50
:1042E00023F03001D7F81C31DB6C654A0B43D364F3
:1042F00003E097F82F3187F82E31D7F81C31D3E936
:10430000002302F48053C7F8F8300023C7F8FC30CC
:10431000D7E93E120B46134351D0D7F81C315B6EE0
:10432000B3F5804F35D0B3F5804F2ED8B3F5405F4D
:1043300031D0B3F5405F28D8B3F5005F1AD0B3F59C
:10434000005F22D8002B03D0B3F5805F07D01CE0BC
:104350004B4BDB6A4A4A43F40033D3621CE0D7F884
:104360001C3108330021184602F080F9034687F813
:104370002F3111E0D7F81C3128330021184602F004
:1043800027FA034687F82F3106E0012387F82F31FB
:1043900002E000BF00E000BF97F82F31002B0AD1E8
:1043A000374B1B6D23F4E041D7F81C315B6E344A68
:1043B0000B43136503E097F82F3187F82E31D7F8B8
:1043C0001C31D3E9002302F40053C7F8F030002376
:1043D000C7F8F430D7E93C120B46134356D0D7F850
:1043E0001C319B6EB3F5A02F33D0B3F5A02F2CD882
:1043F000B3F5802F2FD0B3F5802F26D8B3F5403FEB
:104400002BD0B3F5403F20D8B3F5003F12D0B3F521
:10441000003F1AD8002B22D0B3F5803F15D1D7F832
:104420001C3108330121184602F020F9034687F8B1
:104430002F3115E0D7F81C3128330121184602F03E
:10444000C7F9034687F82F310AE0012387F82F3197
:1044500006E000BF04E000BF02E000BF00E000BFD4
:1044600097F82F31002B0DD1054B1B6D23F4E02164
:10447000D7F81C319B6E024A0B43136506E000BF60
:104480000044025897F82F3187F82E31D7F81C31A5
:10449000D3E9002302F48043C7F8E8300023C7F8CB
:1044A000EC30D7E93A120B46134355D0D7F81C31FC
:1044B000D3F8B430B3F1A04F33D0B3F1A04F2CD820
:1044C000B3F1804F2FD0B3F1804F26D8B3F1405FC6
:1044D0002BD0B3F1405F20D8B3F1005F12D0B3F11D
:1044E000005F1AD8002B22D0B3F1805F15D1D7F826
:1044F0001C3108330121184602F0B8F8034687F84A
:104500002F3115E0D7F81C3128330121184602F06D
:104510005FF9034687F82F310AE0012387F82F312E
:1045200006E000BF04E000BF02E000BF00E000BF03
:1045300097F82F31002B0BD1B64B9B6D23F0E04148
:10454000D7F81C31D3F8B430B24A0B43936503E07B
:1045500097F82F3187F82E31D7F81C31D3E9002393
:1045600002F08063C7F8E0300023C7F8E430D7E9F1
:1045700038120B4613432AD0D7F81C311B6D002B81
:1045800011D0B3F5807F0AD1D7F81C31083301214F
:10459000184602F06BF8034687F82F3104E0012338
:1045A00087F82F3100E000BF97F82F31002B0AD198
:1045B000984BDB6C23F48071D7F81C311B6D954A46
:1045C0000B43D36403E097F82F3187F82E31D7F8E7
:1045D0001C31D3E9002302F40043C7F8D83000238C
:1045E000C7F8DC30D7E936120B46134337D0D7F87B
:1045F0001C315B6FB3F1005F0ED0B3F1005F16D8D2
:10460000002B18D0B3F1805F11D1824BDB6A814A55
:1046100043F40033D3620FE0D7F81C310833012193
:10462000184602F023F8034687F82F3104E00123EF
:1046300087F82F3100E000BF97F82F31002B0AD107
:10464000744B1B6D23F04051D7F81C315B6F714ADE
:104650000B43136503E097F82F3187F82E31D7F815
:104660001C31D3E9002302F08073C7F8D030002357
:10467000C7F8D430D7E934120B4613433AD0D7F8F1
:104680001C319B6C032B1DD801A252F823F000BFF4
:10469000CD460008A1460008AF460008CD460008F8
:1046A0005C4BDB6A5B4A43F40033D3620FE0D7F81C
:1046B0001C3108330221184601F0D8FF034687F861
:1046C0002F3104E0012387F82F3100E000BF97F875
:1046D0002F31002B0AD14F4BDB6C23F00301D7F8AD
:1046E0001C319B6C4B4A0B43D36403E097F82F318A
:1046F00087F82E31D7F81C31D3E9002302F4800368
:10470000C7F8C8300023C7F8CC30D7E932120B46BF
:10471000134300F0A080404B1B683F4A43F4807372
:104720001360FDF741FEC7F828010BE0FDF73CFEE2
:104730000246D7F82831D31A642B03D9032387F80C
:104740002F3105E0344B1B6803F48073002BEDD050
:1047500097F82F31002B7AD12E4B1A6FD7F81C31D6
:10476000D3F8B830534003F44073002B15D0294BD5
:104770001B6F23F44073C7F82431264B1B6F254A67
:1047800043F480331367234B1B6F224A23F4803397
:104790001367204AD7F824311367D7F81C31D3F8B0
:1047A000B830B3F5807F18D1FDF7FEFDC7F82801BA
:1047B0000DE0FDF7F9FD0246D7F82831D21A41F293
:1047C00088339A4203D9032387F82F3105E0114B30
:1047D0001B6F03F00203002BEBD097F82F31002B57
:1047E00030D1D7F81C31D3F8B83003F44073B3F5A7
:1047F000407F15D1074B1B6923F47C51D7F81C313E
:10480000D3F8B8301A09054B1340024A0B43136121
:104810000CE000BF0044025800480258CFFFFF00E0
:10482000D44B1B69D34A23F47C531361D14B196FCA
:10483000D7F81C31D3F8B830C3F30B03CD4A0B4380
:10484000136708E097F82F3187F82E3103E097F8C7
:104850002F3187F82E31D7F81C31D3E9002302F02D
:104860000103C7F8C0300023C7F8C430D7E93012BD
:104870000B46134300F08B80D7F81C31D3F88030FF
:10488000282B6BD801A252F823F000BF654900081D
:104890005D4900085D4900085D4900085D49000860
:1048A0005D4900085D4900085D490008314900087C
:1048B0005D4900085D4900085D4900085D49000840
:1048C0005D4900085D4900085D4900084749000846
:1048D0005D4900085D4900085D4900085D49000820
:1048E0005D4900085D4900085D4900086549000808
:1048F0005D4900085D4900085D4900085D49000800
:104900005D4900085D4900085D49000865490008E7
:104910005D4900085D4900085D4900085D490008DF
:104920005D4900085D4900085D49000865490008C7
:10493000D7F81C3108330121184601F097FE0346D1
:1049400087F82F310FE0D7F81C31283301211846A2
:1049500001F03EFF034687F82F3104E0012387F87A
:104960002F3100E000BF97F82F31002B0BD1814B86
:104970005B6D23F03801D7F81C31D3F880307D4AC5
:104980000B43536503E097F82F3187F82E31D7F8A2
:104990001C31D3E9002302F00203C7F8B83000232A
:1049A000C7F8BC30D7E92E120B46134342D0D7F8D4
:1049B0001C31DB6F052B25D801A252F823F000BF74
:1049C0000D4A0008D9490008EF4900080D4A0008BF
:1049D0000D4A00080D4A0008D7F81C3108330121A0
:1049E000184601F043FE034687F82F310FE0D7F851
:1049F0001C3128330121184601F0EAFE034687F8EE
:104A00002F3104E0012387F82F3100E000BF97F831
:104A10002F31002B0AD1574B5B6D23F00701D7F8DC
:104A20001C31DB6F534A0B43536503E097F82F317A
:104A300087F82E31D7F81C31D3E9002302F00403A4
:104A4000C7F8B0300023C7F8B430D7E92C120B46B2
:104A5000134344D0D7F81C31D3F89830052B25D810
:104A600001A252F823F000BFB54A0008814A0008AD
:104A7000974A0008B54A0008B54A0008B54A000838
:104A8000D7F81C3108330121184601F0EFFD034629
:104A900087F82F310FE0D7F81C3128330121184651
:104AA00001F096FE034687F82F3104E0012387F8D2
:104AB0002F3100E000BF97F82F31002B0BD12D4B89
:104AC0009B6D23F00701D7F81C31D3F89830294AA1
:104AD0000B43936503E097F82F3187F82E31D7F811
:104AE0001C31D3E9002302F02003C7F8A8300023CB
:104AF000C7F8AC30D7E92A120B46134357D0D7F882
:104B00001C31D3F89430B3F1A04F35D0B3F1A04F9E
:104B10002CD8B3F1804F31D0B3F1804F26D8B3F108
:104B2000405F2DD0B3F1405F20D8B3F1005F12D0C9
:104B3000B3F1005F1AD8002B24D0B3F1805F15D1F8
:104B4000D7F81C3108330021184601F08FFD0346C9
:104B500087F82F3117E0D7F81C3128330221184687
:104B600001F036FE034687F82F310CE0012387F869
:104B70002F3108E00044025800BF04E000BF02E00B
:104B800000BF00E000BF97F82F31002B0BD1C24BC4
:104B90005B6D23F0E041D7F81C31D3F89430BE4A66
:104BA0000B43536503E097F82F3187F82E31D7F880
:104BB0001C31D3E9002302F04003C7F8A0300023E2
:104BC000C7F8A430D7E928120B46134355D0D7F8BD
:104BD0001C31D3F8A030B3F5A05F33D0B3F5A05F9C
:104BE0002CD8B3F5805F2FD0B3F5805F26D8B3F50E
:104BF000406F2BD0B3F5406F20D8B3F5006F12D0C3
:104C0000B3F5006F1AD8002B22D0B3F5806F15D101
:104C1000D7F81C3108330021184601F027FD034660
:104C200087F82F3115E0D7F81C31283302211846B8
:104C300001F0CEFD034687F82F310AE0012387F803
:104C40002F3106E000BF04E000BF02E000BF00E03B
:104C500000BF97F82F31002B0BD18F4B9B6D23F4A6
:104C6000E051D7F81C31D3F8A0308B4A0B43936541
:104C700003E097F82F3187F82E31D7F81C31D3E9AC
:104C8000002302F08003C7F898300023C7F89C3057
:104C9000D7E926120B46134355D0D7F81C31D3F869
:104CA000A430B3F5204F33D0B3F5204F2CD8B3F553
:104CB000004F2FD0B3F5004F26D8B3F5C04F2BD0FF
:104CC000B3F5C04F20D8B3F5804F12D0B3F5804F65
:104CD0001AD8002B22D0B3F5005F15D1D7F81C31BC
:104CE00008330021184601F0C1FC034687F82F3134
:104CF00015E0D7F81C3128330221184601F068FD71
:104D0000034687F82F310AE0012387F82F3106E0A8
:104D100000BF04E000BF02E000BF00E000BF97F862
:104D20002F31002B0BD15C4B9B6D23F46041D7F8E6
:104D30001C31D3F8A430584A0B43936503E097F82D
:104D40002F3187F82E31D7F81C31D3E9002302F038
:104D50000803C7F890300023C7F89430D7E924122D
:104D60000B4613431ED0D7F81C31D3F88830B3F567
:104D7000805F0CD1D7F81C3128330221184601F08E
:104D800027FD0346002B02D0012387F82E31424B2A
:104D90005B6D23F44051D7F81C31D3F888303E4A7C
:104DA0000B435365D7F81C31D3E9002302F01003FD
:104DB000C7F888300023C7F88C30D7E922120B4699
:104DC00013431ED0D7F81C31D3F89C30B3F5807F45
:104DD0000CD1D7F81C3128330221184601F0F8FC19
:104DE0000346002B02D0012387F82E312A4B9B6DFE
:104DF00023F44071D7F81C31D3F89C30264A0B437A
:104E00009365D7F81C31D3E9002302F40023C7F8D7
:104E100080300023C7F88430D7E920120B461343B3
:104E200040D0D7F81C31D3F8A830B3F5003F22D0DA
:104E3000B3F5003F1BD8002B03D0B3F5803F0BD058
:104E400015E0D7F81C3108330021184601F00EFC9C
:104E5000034687F82F310FE0D7F81C3128330221A1
:104E6000184601F0B5FC034687F82F3104E0012312
:104E700087F82F3100E000BF97F82F31002B0DD1BC
:104E8000054B9B6D23F44031D7F81C31D3F8A83083
:104E9000014A0B43936505E00044025897F82F310F
:104EA00087F82E31D7F81C31D3E9002302F4802390
:104EB000BB670023FB67D7E91E120B4613433BD0A9
:104EC000D7F81C31D3F88C30B3F5401F1FD0B3F5A1
:104ED000401F18D8B3F5801F03D0B3F5001F07D0CB
:104EE00011E0644BDB6A634A43F40033D3620FE0A2
:104EF000D7F81C3128330121184601F069FC03461C
:104F000087F82F3104E0012387F82F3100E000BF3C
:104F100097F82F31002B0BD1564B5B6D23F44011CA
:104F2000D7F81C31D3F88C30524A0B43536503E059
:104F300097F82F3187F82E31D7F81C31D3E90023A9
:104F400002F480333B6700237B67D7E91C120B46D2
:104F5000134331D0D7F81C315B6D002B03D0B3F570
:104F6000803F07D011E0434BDB6A424A43F40033F1
:104F7000D3620EE0D7F81C3108330221184601F045
:104F800075FB034687F82F3103E0012387F82F31A3
:104F900000BF97F82F31002B0AD1364BDB6C23F47E
:104FA0008031D7F81C315B6D324A0B43D36403E088
:104FB00097F82F3187F82E31D7F81C31D3E9002329
:104FC00002F00053BB660023FB66D7E91A120B46BA
:104FD00013430CD0D7F81C3128330221184601F0B6
:104FE000F7FB0346002B02D0012387F82E31D7F8B8
:104FF0001C31D3E9002302F400333B6600237B66B7
:10500000D7E918120B4613433AD0D7F81C31D3F81E
:105010008430B3F5407F18D0B3F5407F11D8B3F595
:10502000007F14D0B3F5007F0BD8002B11D0B3F55F
:10503000807F06D10F4BDB6A0E4A43F40033D36204
:1050400008E0012387F82F3104E000BF02E000BF31
:1050500000E000BF97F82F31002B0DD1054B5B6DA1
:1050600023F44071D7F81C31D3F88430014A0B4344
:10507000536505E00044025897F82F3187F82E3128
:10508000D7F81C31D3E9002302F48013BB65002359
:10509000FB65D7E916120B46134309D0AA4B1B6DCB
:1050A00023F00041D7F81C319B6FA74A0B431365CF
:1050B000D7F81C31D3E9002302F080533B6500236D
:1050C0007B65D7E914120B4613430AD09E4B1B692C
:1050D00023F48041D7F81C31D3F8BC309A4A0B43F3
:1050E0001361D7F81C31D3E9002302F40013BB6429
:1050F0000023FB64D7E912120B46134309D0924BED
:105100001B6D23F08071D7F81C311B6F8E4A0B4347
:105110001365D7F81C31D3E9002302F080433B64C8
:1051200000237B64D7E910120B4613430ED0864B45
:105130001B69854A23F400431361834B1969D7F82F
:105140001C31D3F8C030804A0B431361D7F81C31AF
:10515000D3E9002302F00043BB630023FB63D7E9DC
:105160000E120B46134309D0774BDB6C23F04051F2
:10517000D7F81C319B6D744A0B43D364D7F81C31AC
:10518000D3E9002302F400033B6300237B63D7E9E8
:105190000C120B4613430AD06B4B5B6D23F440019A
:1051A000D7F81C31D3F89030674A0B435365D7F8D2
:1051B0001C31D3E900230021B96203F00103FB6233
:1051C000D7E90A120B46134311D0D7F81C31083324
:1051D0000021184601F04AFA034687F82F3197F864
:1051E0002F31002B03D097F82F3187F82E31D7F8C5
:1051F0001C31D3E900230021396203F002037B62F2
:10520000D7E908120B46134311D0D7F81C310833E5
:105210000121184601F02AFA034687F82F3197F842
:105220002F31002B03D097F82F3187F82E31D7F884
:105230001C31D3E900230021B96103F00403FB61B1
:10524000D7E906120B46134311D0D7F81C310833A7
:105250000221184601F00AFA034687F82F3197F821
:105260002F31002B03D097F82F3187F82E31D7F844
:105270001C31D3E900230021396103F008037B616D
:10528000D7E904120B46134311D0D7F81C31283349
:105290000021184601F09CFA034687F82F3197F851
:1052A0002F31002B03D097F82F3187F82E31D7F804
:1052B0001C31D3E900230021B96003F01003FB6027
:1052C000D7E902120B46134311D0D7F81C3128330B
:1052D0000121184601F07CFA034687F82F3197F830
:1052E0002F31002B03D097F82F3187F82E31D7F8C4
:1052F0001C31D3E900230021396003F020037B60D7
:10530000D7E900120B46134311D0D7F81C312833CC
:105310000221184601F05CFA034687F82F3197F80E
:105320002F31002B03D097F82F3187F82E3197F8C3
:105330002E31002B01D1002300E00123184607F590
:105340009877BD46BDE8B08F0044025880B590B054
:1053500000AFC7E90001D7E90023A2F580710B4334
:1053600040F094809E4B1B6D03F007033B633B6B47
:10537000042B00F2878001A252F823F09153000819
:10538000B9530008E15300087D540008095400088F
:10539000934B1B6803F00073B3F1007F08D107F152
:1053A0002403184601F010F8BB6AFB6300F045BD0A
:1053B0000023FB6300F041BD894B1B6803F00063D1
:1053C000B3F1006F08D107F11803184600F054FD3F
:1053D000BB69FB6300F031BD0023FB6300F02DBD12
:1053E0007F4B1B6803F00053B3F1005F08D107F156
:1053F0000C03184600F094FEFB68FB6300F01DBD33
:105400000023FB6300F019BD754BDB6C03F04053C8
:105410007B63734B1B6803F00403042B0CD17B6B81
:10542000002B09D16E4B1B68DB0803F003036D4AA8
:1054300022FA03F3FB631FE0694B1B6803F48073DC
:10544000B3F5807F06D17B6BB3F1805F02D1664BF1
:10545000FB6311E0624B1B6803F40033B3F5003FBC
:1054600006D17B6BB3F1005F02D1604BFB6303E0BD
:105470000023FB6300F0E1BC00F0DFBC5C4BFB638E
:1054800000F0DBBC0023FB6300F0D7BCD7E90023AE
:10549000A2F500710B4340F0AD80514B1B6D03F43E
:1054A000E0733B633B6BB3F5807F56D03B6BB3F54A
:1054B000807F00F290803B6BC02B00F088803B6BBC
:1054C000C02B00F288803B6B802B32D03B6B802B53
:1054D00000F281803B6B002B03D03B6B402B14D040
:1054E00079E03F4B1B6803F00073B3F1007F08D1F4
:1054F00007F12403184600F067FFBB6AFB6300F066
:105500009CBC0023FB6300F098BC354B1B6803F088
:105510000063B3F1006F08D107F11803184600F0DB
:10552000ABFCBB69FB6300F088BC0023FB6300F0AD
:1055300084BC2B4B1B6803F00053B3F1005F08D110
:1055400007F10C03184600F0EBFDFB68FB6300F06D
:1055500074BC0023FB6300F070BC214BDB6C03F0D8
:1055600040537B631E4B1B6803F00403042B0CD1D8
:105570007B6B002B09D11A4B1B68DB0803F003037C
:10558000184A22FA03F3FB631FE0154B1B6803F470
:105590008073B3F5807F06D17B6BB3F1805F02D15E
:1055A000114BFB6311E00E4B1B6803F40033B3F5A2
:1055B000003F06D17B6BB3F1005F02D10B4BFB6365
:1055C00003E00023FB6300F038BC00F036BC084B5E
:1055D000FB6300F032BC0023FB6300F02EBC00BF75
:1055E000004402580090D00300093D0040787D013E
:1055F0000080BB00D7E90023A2F580610B4340F097
:105600009C809E4B9B6D03F460033B633B6BB3F547
:10561000000F54D03B6BB3F5000F00F28B803B6B57
:10562000B3F5C00F00F083803B6BB3F5C00F00F201
:1056300081803B6BB3F5800F2FD03B6BB3F5800FB0
:1056400078D83B6B002B04D03B6BB3F5001F12D016
:1056500070E08A4B1B6803F00073B3F1007F07D141
:1056600007F12403184600F0AFFEBB6AFB63E4E3D6
:105670000023FB63E1E3814B1B6803F00063B3F19C
:10568000006F07D107F11803184600F0F5FBBB695E
:10569000FB63D2E30023FB63CFE3784B1B6803F08B
:1056A0000053B3F1005F07D107F10C03184600F077
:1056B00037FDFB68FB63C0E30023FB63BDE36F4B77
:1056C000DB6C03F040537B636C4B1B6803F00403FB
:1056D000042B0CD17B6B002B09D1684B1B68DB08BA
:1056E00003F00303664A22FA03F3FB631EE0634BF5
:1056F0001B6803F48073B3F5807F06D17B6BB3F135
:10570000805F02D15F4BFB6310E05C4B1B6803F4CE
:105710000033B3F5003F06D17B6BB3F1005F02D1DC
:10572000594BFB6302E00023FB6386E385E3574BA1
:10573000FB6382E30023FB637FE3D7E90023A2F549
:1057400000610B4340F0A7804C4B9B6D03F0E0637E
:105750003B633B6BB3F1806F55D03B6BB3F1806F14
:1057600000F296803B6BB3F1407F00F084803B6B8E
:10577000B3F1407F00F28C803B6BB3F1007F30D0FF
:105780003B6BB3F1007F00F283803B6B002B04D0B6
:105790003B6BB3F1807F12D07AE0384B1B6803F08B
:1057A0000073B3F1007F07D107F12403184600F01E
:1057B0000BFEBB6AFB6340E30023FB633DE32F4B1F
:1057C0001B6803F00063B3F1006F07D107F1180302
:1057D000184600F051FBBB69FB632EE30023FB631B
:1057E0002BE3264B1B6803F00053B3F1005F07D196
:1057F00007F10C03184600F093FCFB68FB631CE305
:105800000023FB6319E31D4BDB6C03F040537B6308
:105810001A4B1B6803F00403042B0CD17B6B002B89
:1058200009D1164B1B68DB0803F00303144A22FA64
:1058300003F3FB631EE0114B1B6803F48073B3F5A5
:10584000807F06D17B6BB3F1805F02D10D4BFB6390
:1058500010E00A4B1B6803F40033B3F5003F06D198
:105860007B6BB3F1005F02D1074BFB6302E00023C7
:10587000FB63E2E2E1E2054BFB63DEE20044025837
:105880000090D00300093D0040787D010080BB00FE
:105890000023FB63D1E2D7E90023A2F580510B433B
:1058A00040F09C80934B1B6D03F4E043BB63BB6BE8
:1058B000B3F5804F54D0BB6BB3F5804F00F28B80B3
:1058C000BB6BB3F5405F00F08380BB6BB3F5405F0B
:1058D00000F28180BB6BB3F5005F2FD0BB6BB3F5DB
:1058E000005F78D8BB6B002B04D0BB6BB3F5805F37
:1058F00012D070E07F4B1B6803F00073B3F1007FA0
:1059000007D107F12403184600F05EFDBB6AFB6374
:1059100093E20023FB6390E2764B1B6803F0006385
:10592000B3F1006F07D107F11803184600F0A4FA8D
:10593000BB69FB6381E20023FB637EE26D4B1B6866
:1059400003F00053B3F1005F07D107F10C031846D1
:1059500000F0E6FBFB68FB636FE20023FB636CE295
:10596000644BDB6C03F040537B63624B1B6803F0BA
:105970000403042B0CD17B6B002B09D15D4B1B68FE
:10598000DB0803F003035C4A22FA03F3FB631EE027
:10599000584B1B6803F48073B3F5807F06D17B6B93
:1059A000B3F1805F02D1554BFB6310E0514B1B6894
:1059B00003F40033B3F5003F06D17B6BB3F1005F16
:1059C00002D14F4BFB6302E00023FB6335E234E27C
:1059D0004C4BFB6331E20023FB632EE2D7E900234B
:1059E000A2F500510B4340F08F80424B1B6D03F436
:1059F000E023BB63BB6BB3F5A02F6BD0BB6BB3F5E0
:105A0000A02F74D8BB6BB3F5802F56D0BB6BB3F50A
:105A1000802F6CD8BB6BB3F5403F3BD0BB6BB3F56D
:105A2000403F64D8BB6BB3F5003F21D0BB6BB3F5EF
:105A3000003F5CD8BB6B002B04D0BB6BB3F5803F41
:105A400004D054E0FEF7CAF9F863F6E1294B1B686D
:105A500003F00063B3F1006F07D107F11803184694
:105A600000F00AFAFB69FB63E7E10023FB63E4E172
:105A7000204B1B6803F00053B3F1005F07D107F11F
:105A80000C03184600F04CFB3B69FB63D5E1002397
:105A9000FB63D2E1174B1B6803F00403042B09D10D
:105AA000144B1B68DB0803F00303134A22FA03F3C9
:105AB000FB63C2E10023FB63BFE10E4B1B6803F4F1
:105AC0008073B3F5807F02D10C4BFB63B5E10023FB
:105AD000FB63B2E1074B1B6803F40033B3F5003FEF
